:0400000080312828FB
:100008007E14803100308600003087000B1F0D28D9
:100018000E28262841019B1D122813281B28911DF4
:10002800162817281B288431AB24803126281B1D4D
:100038001E281F282628111D222823282628843117
:10004800A72480317E10090080312A28F801F9019F
:10005800FA012030840000308500253084317D2469
:1000680080317E10400182313F2A05304001D100A5
:10007800BD01BE01BC01C301C4011C30C500003074
:10008800C6005130C7000130C8000030C9004330F5
:10009800CA000230CB000030CC00833163238031AA
:1000A800003A031D58285928612884318F2480314B
:1000B8004001BC000130BD00C92800304001D0001B
:1000C8000030CF000030CE000030CD008528013050
:1000D8004001CD070030CE3DCF3DD03D5008031D37
:1000E8007F28A1304D0286304E3B01304F3B031C28
:1000F8007E287F28852803304001BC000130BD00E0
:10010800C9288431B3248031003A031D8C288D28F6
:100118006B2884318F2480314001BC003C080319CE
:100128009628972898285E284308D3004408D200C8
:10013800FF30D2050F30D305431EA328A428BD28BD
:100148000030F4001030F50052087402F60053082D
:10015800753BF7000430F736F60C890BAF28F60923
:10016800F709F60A0319F70A7608B8007708B900FC
:10017800C628520E0F39B800530EF039B804530E82
:100188000F39B9000130BE005E2808004001C800E0
:100198004808CD004608CE004708CF005130F3008C
:1001A8000030F4004D30F5000330F6000030F70061
:1001B80083318B238031003A031DE328E428EB28A0
:1001C80084318F2480314001BA0000302129003069
:1001D8004001CC000030CB000030CA000030C9001C
:1001E8000D2901304001C9070030CA3DCB3DCC3D47
:1001F8004C08031D0929A130490286304A3B0130C9
:100208004B3B031C082909290D2903304001BA007A
:10021800E9288431B3248031003A031D14291529B3
:10022800F52884318F2480314001BA003A08031937
:100238001E291F292029E928013008004001CE0085
:100248005130C5000030C6004E30C7000130C8002C
:100258000030C9004D08CA000230CB000030CC0085
:10026800833163238131003A031D3B293C2943290B
:1002780084318F2481314001BA000030792900305F
:100288004001D2000030D1000030D0000030CF0053
:10029800652901304001CF070030D03DD13DD23D26
:1002A8005208031D6129A1304F028630503B0130AE
:1002B800513B031C60296129652903304001BA00BC
:1002C80041298431B3248131003A031D6C296D29F9
:1002D8004D2984318F2481314001BA003A0803192D
:1002E800762977297829412901300800F801400149
:1002F800BB01BA01C601C701C70A00308031CA2054
:100308008131003A031D89298A298E29013040014B
:10031800BB00C8294001C601C70103308031CA208B
:100328008131003A031D99299A299B298A2940017C
:10033800C601C70104308031CA208131003A031D4B
:10034800A629A729A8298A29F901FA0179304001A3
:10035800CD000E30813122218131003A031DB529AB
:10036800B629B7298A2958307906031DBC29BD2921
:10037800C62910307A06031DC229C329C6290130AF
:10038800F8008A29F8018A290800400198015030AC
:1003980099009A0137309200F0309300FF309400B2
:1003A80037307D018C00A0309600FF30A0008D0111
:1003B8009701A1018E019801A20137308F00F0301A
:1003C8009900FF30A3003F309000A0309A00FF3022
:1003D800A4000E307C01C7001B307B019A000C3052
:1003E8007C01C8001C307B0198007D0191019201BD
:1003F80093019B019C019D01A501A601A70108008D
:10040800410111114F010F1E0A2A0B2A0F2A8431AC
:10041800262482312A2A8F1A122A132A1D2A111FEA
:10042800162A172A1D2A05304001AD000130AC00FC
:100438002A2A8F1E202A212A2A2A111F242A252AFD
:100448002A2A05304001AD000230AC0040012D08D9
:10045800F100F201F135F20D143071078400043017
:10046800723D80388500013F8A00003F0A008231D2
:100478004001AD000800843147248231843138249A
:1004880082314001C301C401B801B901BE01BD01F7
:10049800BC01C101C201BF01C001F901FA01B601E5
:1004A800B701B401B5010030B1000030B000003030
:1004B800AF000030AE00F801BB01BA010B178B1773
:1004C80081317A2182318031392082318331EB23A5
:1004D800823183310C238231672A80312828003009
:1004E800F6000030F5000030F4000030F300400161
:1004F800451C7F2A802A882A4908F3074A08F43DC0
:100508004B08F53D4C08F63D0130C935CA0DCB0DF9
:10051800CC0D890B892A0130C836C70CC60CC50C0E
:10052800890B902A4808470446044504031D9D2A60
:100538009E2A7B2A7608C8007508C7007408C6007A
:100548007308C50008003F304001CD0009308131F3
:1005580022218231003A031DB22AB32AB52A00307B
:10056800D92A40014008D4003F08D3005408B500F8
:100578005308B4005308C5005408C600C701C80191
:100588000030CC000030CB000030CA001830C90061
:1005980082317322823140014808B1004708B00017
:1005A8004608AF004508AE00013008000430F000EE
:1005B8004F010F1CE02AE12A092B400129082A04CF
:1005C8000319E72AE82AF82A270886002808870056
:1005D8004F010C08810001304001A7070030A83DF9
:1005E8000130A9020030AA3B29082A040319FD2A70
:1005F800FE2A022B4F01911211160A2B4F0191105E
:10060800911611160730F0000A2B91157008080092
:100618000030F6000030F5000030F4000030F30040
:100628007608031D222B7508031D222B50307302F8
:10063800C330743B031C212B222B232B372B013077
:10064800F3070030F43DF53DF63D7608031D372BE2
:100658007508031D372B50307302C330743B031CDD
:10066800362B372B232B08004001250826040319B5
:100678003E2B3F2B522B0130A5020030A63B23080E
:1006880086002408870001084F018C0001304001D2
:10069800A3070030A43D0330F000612B2B08031999
:1006A800562B572B5D2BAB014F0191140130F000F5
:1006B800612B84316F248331F00070080800F30146
:1006C8008431B3248331003A031D6B2B6C2B892BA7
:1006D80001304001A0004608A2004508A1000130F1
:1006E800AB004708A300A4014908A6004808A500D4
:1006F8004A08A700A8014C08AA004B08A900AC01A9
:100708008431892483310130F300730808004001E3
:10071800C5018431B3248331003A031D942B952BF2
:10072800AF2B01304001A0007408A2007308A1009B
:10073800AB017508A300A4017708A6007608A500F8
:10074800A701A801A901AA01AC0184318924833138
:1007580001304001C5004001450808004130400112
:10076800CD000830813122218331003A031DBD2B91
:10077800BE2BC02B0030CE2B40014208F5004108AB
:10078800F400FF30F4050F30F5057508B70074085C
:10079800B6000130080006304001AD000330AC005F
:1007A8004101911140012D08F100F201F135F20DDE
:1007B8001430710784000430723D80388500013F91
:1007C8008A00003F0A0083314001AD0008008231F1
:1007D800A72283314001D5008331B2238331400100
:1007E800D60055080319F92BFA2BFF2B56080319C5
:1007F800FE2BFF2BFF2B0800383404340034003460
:100808008B3403340034003463340334003400344C
:100818008F340434B33404340034003400340034E6
:10082800AF34043476340434A13404343834033413
:10083800DA3402349B340434953404346F34043489
:10084800683404344001A0010030A200FF30A10048
:10085800A301A401A701A801AD0141011111911142
:100868004F0190131013080080304F018F0008309B
:100878009000910192014F308D0041011B159B158D
:100888004F019016080084315F2484318131C921D9
:1008980084318431382484318431542484310800EB
:1008A80041010C100B140030F3000030F4008431C7
:1008B800832484310800603045018D008F01910147
:1008C80005309300920108004F01901290164001E4
:1008D800A001003008004F0111158431262484310D
:1008E8000030080003144001210D4F018C00043032
:1008F8000800640080010131890B7E2C00347408E3
:100908004001D8007308D70008004F0111140230C5
:100918004001AD00080040012C08F300AC01730849
:100928000800843168248431F0007008080084319C
:100938006F248431F00070080800400121354F0110
:100948008C0003300800823104228431080083318E
:10095800CF23843108004001A0010830080040017D
:04096800200808005B
:020000040001F9
:0A000E008F3FFF3F9F3FFF3FFF3F82
:00000001FF
