:0400000080312828FB
:100008007E14803100308600003087000B1F0D28D9
:100018000E28262841019B1D122813281B28911DF4
:10002800162817281B2883314123803126281B1DB9
:100038001E281F282628111D222823282628833118
:100048003D2380317E10090080312A28F701F8010C
:100058003830840000308500173083311323803115
:100068007E10400181313A2905304001B100CB01B1
:10007800CC01CA01CD01CE011C30A0000030A10086
:100088003130A2000130A3000030A4004D30A5009B
:100098000230A6000030A700823152228031003A97
:1000A800031D5728582860288331252380314001B3
:1000B800CA000130CB00DD2800304001B00000301C
:1000C800AF000030AE000030AD00842801304001A0
:1000D800AD070030AE3DAF3DB03D3008031D7E2872
:1000E800A1302D0286302E3B01302F3B031C7D288A
:1000F8007E28842803304001CA000130CB00DD2867
:10010800833149238031003A031D8B288C286A28C3
:100118008331252380314001CA004A0803199528F4
:10012800962897285D284E08A800A9014D08AA001E
:10013800AB012A08AB00AA0128082A04B200290842
:100148002B04B300FF30B2051F30B305331EAD28B2
:10015800AE28C628FF30B2050F30B3050030A8001E
:100168001030A90032082802AA003308293BAB0046
:10017800AA09AB09AA0A0319AB0A2A08C6002B0860
:10018800C700CA283308C7003208C6001030F30079
:100198000030F4004708F6004608F5008031DE20FC
:1001A800803174084001C9007308C8000130CC00D0
:1001B8005D2808004001A101F41FE328E428EB288A
:1001C800F309F409F30A0319F40A0130A100F61F30
:1001D800EE28EF28F628F509F609F50A0319F60AB4
:1001E8000130A106A201A301730874040319FD28B4
:1001F800FE282B290130A00008290130F335F40D21
:10020800890B02290130A007F41F0B290C290129A9
:100218000130A235A30D890B0D2974087602031D40
:10022800172973087502031C1A291B29202973082A
:10023800F5027408F63B22140130F436F30C890BEE
:1002480021290130A002031D2A292B290C29210864
:1002580003192F2930293529A209A309A20A03194C
:10026800A30A2308F4002208F30008008231DD22E3
:1002780081318231CE2281314001CD01CE01C801C8
:10028800C901C601C701CC01CB01CA010B178B17E5
:1002980080313820813100304001B7000030B6008D
:1002A8000030B5000030B4003708031D6629360851
:1002B800031D662950303402C330353B031C6529C1
:1002C800662967294C2901304001B4070030B53D43
:1002D800B63DB73D3708031D7C293608031D7C2928
:1002E80050303402C330353B031C7B297C296729F5
:1002F8004C298031282840019801503099009A01F2
:1003080037309200F0309300FF30940037307D0191
:100318008C00A0309600FF30A0008D019701A1014C
:100328008E019801A20137308F00F0309900FF301C
:10033800A3003F309000A0309A00FF30A4000E3098
:100348007C01C7001B307B019A000C307C01C8007F
:100358001C307B0198007D019101920193019B0162
:100368009C019D01A501A601A701080041011111E9
:100378004F010F1EC029C129C5298231BC228131F4
:10038800E0298F1AC829C929D329111FCC29CD29B9
:10039800D32905304001C5000130C400E0298F1E73
:1003A800D629D729E029111FDA29DB29E0290530C8
:1003B8004001C5000230C40040014508F100F201C7
:1003C800F135F20DAA30710784000230723D803891
:1003D8008500013F8A00003F0A0081314001C500C5
:1003E80008000430F0004F010F1CFB29FC29242AC7
:1003F8004001410842040319022A032A132A3F082C
:100408008600400887004F010C0881000130400138
:10041800BF070030C03D0130C1020030C23B410877
:1004280042040319182A192A1D2A4F01911211167C
:10043800252A4F019110911611160730F000252A30
:1004480091157008080040013D083E0403192D2A43
:100458002E2A412A0130BD020030BE3B3B088600EF
:100468003C08870001084F018C0001304001BB07A0
:100478000030BC3D0330F000502A43080319452AD8
:10048800462A4C2AC3014F0191140130F000502A2A
:10049800833105238231F00070080800F3018331AD
:1004A80049238231003A031D5A2A5B2A782A0130EF
:1004B8004001B8002108BA002008B9000130C30083
:1004C8002208BB00BC012408BE002308BD00250883
:1004D800BF00C0012708C2002608C100C40183313B
:1004E8001F2382310130F3007308080006304001F1
:1004F800C5000330C4004101911140014508F100D5
:10050800F201F135F20DAA30710784000230723D14
:1005180080388500013F8A00003F0A00823140018F
:10052800C5000800CE3402340034003400340034EE
:100538000034003452340234003400342534033497
:10054800493403340034003400340034453403346F
:100558000C3403343734033427340234F53401348B
:10056800313403342B34033405340334FE34023479
:100578004001B8010030BA00FF30B900BB01BC012E
:10058800BF01C001C5014101111191114F01901323
:100598001013080080304F018F000830900091013F
:1005A80092014F308D0041011B159B154F0190168C
:1005B80008008231F522823181317F2182318231F6
:1005C800CE2282318231EA228231080041010C10A8
:1005D8000B140030F3000030F4008331192382310A
:1005E8000800603045018D008F01910105309300AE
:1005F800920108004F01901290164001B801003096
:1006080008004F0111158231BC22833100300800E7
:1006180003144001390D4F018C00043008006400B8
:1006280080010131890B142B003474084001D0007B
:100638007308CF0008004F01111402304001C500B3
:10064800080040014408F300C4017308080082311F
:10065800FE228331F00070080800833105238331BE
:10066800F00070080800400139354F018C00033054
:1006780008008131BA218331080082317A2283311E
:1006880008004001B8010830080040013808080097
:020000040001F9
:0A000E008F3FFF3F9F3FFF3FFF3F82
:00000001FF
