:0400000080312828FB
:100008007E14803100308600003087000B1F0D28D9
:100018000E28262841019B1D122813281B28911DF4
:10002800162817281B288E319326803126281B1D59
:100038001E281F282628111D2228232826288E310D
:10004800972680317E10090080312A28F901FA01AB
:10005800203084000030850030308E31C426803155
:100068004101A001A101A201A301A401A5017E10E3
:10007800400180313F288F31372780318F31192750
:1000880080318F31A02780314001C301C401C101F3
:10009800C201BF01C001BD01BE01CC01CB014101BC
:1000A800A401A50100304001B4000030B3000030C5
:1000B800B2000030B1000030B0000030AF000030B6
:1000C800AE000030AD00BB01BC014101A201A3019B
:1000D8004001B901BA01CA01C9010B178B17F930E0
:1000E800F5008730F6008F316D2780312030F5001C
:1000F8009030F6008F316D2780319A30F5009030BE
:10010800F6008F316D2780317A30F5009030F60097
:100118008F316D2780313230F5008630F6008F310F
:100128006D2780318F31BD2780314001CA004A08D0
:1001380003199F28A028AA288F3158278031003A10
:10014800031DA728A828AA284001CA0140014A0877
:100158000319AF28B028BF288B30F5009030F6007F
:100168008F316D278031C330F5009030F6008F3124
:100178006D278031C6286830F5009030F6008F3141
:100188006D278031A6304001D80085316E25803139
:10019800003A0319D028D128E02841012708400156
:1001A800E700410126084001E6008131AA2180319B
:1001B80001304001CC00E2284001CC0182312B22E1
:1001C8008031003A0319E928EA28EE280130400175
:1001D800CA00F0284001CA014C080319F428F52880
:1001E800F92884310E24803100293F30F500903001
:1001F800F6008F316D27803140014A08031905291F
:1002080006290A298631572680311129B630F5008A
:100218009030F6008F316D2780310030F500903036
:10022800F6008F316D278031873153278031C628FA
:10023800803128284001E101DB1F232924293129A5
:10024800D809D909DA09DB09D80A0319D90A03191F
:10025800DA0A0319DB0A0130E100DF1F34293529E6
:100268004229DC09DD09DE09DF09DC0A0319DD0A98
:100278000319DE0A0319DF0A0130E1060030E50040
:100288000030E4000030E3000030E2005B085A046C
:100298005904580403195129522991290130E000C1
:1002A8005E290130D835D90DDA0DDB0D890B5629B9
:1002B8000130E007DB1F6129622955290130E23549
:1002C800E30DE40DE50D890B63295B085F02031D4F
:1002D80077295A085E02031D772959085D02031D14
:1002E800772958085C02031C7A297B298429580835
:1002F800DC025908DD3B5A08DE3B5B08DF3B621431
:100308000130DB36DA0CD90CD80C890B8529013081
:10031800E002031D90299129622961080319952992
:100328009629A129E209E309E409E509E20A031982
:10033800E30A0319E40A0319E50A6508DB006408FF
:10034800DA006308D9006208D8000800FF304001CD
:100358006605EA001F306705EB006B1EB429B52956
:10036800B9290030EA07E030EB3D0030DB0000300F
:10037800DA000030D9000430D8006A08D0006B08D1
:10038800D100890D893B8909D200D3000030D700FC
:100398000030D6000030D5001930D40086318C26C4
:1003A800813140015308DF005208DE005108DD00AA
:1003B8005008DC0081311E21813140015908ED00CF
:1003C8005808EC006D08C2006C08C1006430F300E6
:1003D8000030F4006D08F6006C08F500833108233E
:1003E800813174084001C0007308BF00ED1BFD296E
:1003F800FE290F2A6430F3000030F4006D08F6007F
:100408006C08F5008331BD23813174084001BE00BA
:100418007308BD00262A6430F3000030F4006C092C
:10042800E8006D09E900E80A0319E90A6808F50017
:100438006908F6008331BD23813174084001BE008C
:100448007308BD004008C4003F08C30008006030BE
:100458004001D8000930853131258231003A031D29
:10046800362A372A392A0030A52A40016108410175
:10047800A500400160084101A40040016008D000C7
:100488006108D100D201D3010030D7000030D60076
:100498000030D5001830D40086318C2682314001D6
:1004A8005308B4005208B3005108B2005008B10014
:1004B8000030DB000030DA000330D900E830D80023
:1004C8003408DF003308DE003208DD003108DC00C4
:1004D80083316423823140015B08B0005A08AF00C1
:1004E8005908AE005808AD000030DB000030DA00D3
:1004F8000030D9000A30D8003408D7003308D600B5
:100508003208D5003108D4000030D3000030D200C2
:100518000330D100E830D0008431A6248231400174
:100528005308DF005208DE005108DD005008DC00E7
:1005380083316423823140015908BC005808BB004C
:10054800013008004001EF0163086204610460049F
:10055800031DAF2AB02AEE2A30308F310B278231A3
:10056800072B6F08643E860087010030D3000030F7
:10057800D2000030D1000A30D0006308D7006208EA
:10058800D6006108D5006008D4008431A6248231E1
:1005980040015008303E81000030DB000030DA00B6
:1005A8000030D9000A30D8006308DF006208DE0096
:1005B8006108DD006008DC0083316423823140017A
:1005C8005B08E3005A08E2005908E1005808E00017
:1005D8000130EF076308620461046004031DF52A13
:1005E800F62AB52A012B0130EF026F08643E860017
:1005F800870101088F310B27823140016F08031DE5
:10060800062B072BF72A08004001D101F41F0D2BF8
:100618000E2B152BF309F409F30A0319F40A013018
:10062800D100F61F182B192B202BF509F609F50A0E
:100638000319F60A0130D106D201D30173087404F4
:100648000319272B282B552B0130D000322B0130D2
:10065800F335F40D890B2C2B0130D007F41F352B03
:10066800362B2B2B0130D235D30D890B372B740841
:100678007602031D412B73087502031C442B452B7E
:100688004A2B7308F5027408F63B52140130F4360D
:10069800F30C890B4B2B0130D002031D542B552B27
:1006A800362B51080319592B5A2B5F2BD209D30922
:1006B800D20A0319D30A5308F4005208F3000800B9
:1006C8000030F7000030F6000030F5000030F4008C
:1006D80040015B085A04590458040319742B752BFC
:1006E800B42B0130F800812B0130D835D90DDA0D43
:1006F800DB0D890B792B0130F807DB1F842B852B49
:10070800782B0130F435F50DF60DF70D890B862B96
:100718005B085F02031D9A2B5A085E02031D9A2B81
:1007280059085D02031D9A2B58085C02031C9D2B77
:100738009E2BA72B5808DC025908DD3B5A08DE3BE4
:100748005B08DF3B74140130DB36DA0CD90CD80CAB
:10075800890BA82B0130F802031DB32BB42B852B72
:100768007708DB007608DA007508D9007408D80025
:100778000800F801F61FC12BC22BC92BF509F60991
:10078800F50A0319F60A0130F800F41FCC2BCD2B1B
:10079800D22BF309F409F30A0319F40A7308740451
:1007A8000319D72BD82BFF2B0130F700E22B013090
:1007B800F335F40D890BDC2B0130F707F41FE52B1B
:1007C800E62BDB2B74087602031DEC2B73087502ED
:1007D800031CEF2BF02BF42B7308F5027408F63B7F
:1007E8000130F436F30C890BF52B0130F702031DA9
:1007F800FE2BFF2BE62B78080319032C042C092C5D
:10080800F509F609F50A0319F60A7608F4007508D9
:10081800F3000800A830F5009030F6008F316D27FE
:1008280084314001C21F192C1A2C1E2C2D308F31F7
:100838000B2784314001C01B222C232C282C400874
:10084800DF003F08DE00332C3F09DC004009DD00F3
:10085800DC0A0319DD0A5C08DE005D08DF005F08BA
:10086800D4005E08D30084315C2484312E308F316B
:100878000B278431003040013E020A3003193D0243
:100888000318472C482C4C2C30308F310B278431DF
:1008980040013E08D4003D08D30084315C248431F3
:1008A800DB30F5009030F6008F316D278431080079
:1008B8004001DB0153085404031D632C642C8E2C67
:1008C80030308F310B278431A52C5B08553E8600CC
:1008D80087010A30F3000030F4005408F60053088A
:1008E800F5008631F22684317308303E81000A30E3
:1008F800F3000030F40040015408F6005308F500F6
:100908008531AA25843174084001D4007308D300C6
:100918000130DB0753085404031D932C942C692CD5
:100928009F2C0130DB025B08553E860087010108D9
:100938008F310B27843140015B08031DA42CA52CA3
:10094800952C08004001530852045104500403191F
:10095800AE2CAF2CE62C0130F300BB2C0130D03587
:10096800D10DD20DD30D890BB32C0130F307D31F52
:10097800BE2CBF2CB22C53085702031DCD2C520895
:100988005602031DCD2C51085502031DCD2C5008CD
:100998005402031CD02CD12CD92C5008D402510855
:1009A800D53B5208D63B5308D73B0130D336D20C3F
:1009B800D10CD00C890BDA2C0130F302031DE52C85
:1009C800E62CBF2C5708D3005608D2005508D10092
:1009D8005408D000080040019801503099001030A8
:1009E8009A0037309200F0309300EF30940037309F
:1009F8007D018C00A0309600CF30A0008D019701BA
:100A0800A1018E019801A20137308F00F0309900C2
:100A1800FF30A3003F309000A0309A00CF30A400F0
:100A280015307C01C20013307B01A0000E307C0120
:100A3800C7001B307B019A000C307C01C8001C30B9
:100A48007B0198007D019101920193019B019C011A
:100A58009D01A501A601A7010800F700770840013C
:100A6800CD00F901FA015130D0000030D1004D30ED
:100A7800D2000130D3000030D4007930D5000230E4
:100A8800D6000030D7008731D2278531003A031DC0
:100A98004E2D4F2D512D00306D2D8731AA278531D0
:100AA800003A031D582D592D5A2D4F2D8E31B2263F
:100AB80085314001C90049080319632D642D652D4E
:100AC8004F2D5808860087017908C03F7A08C13F32
:100AD8000130080005304001CD00F901FA011C3051
:100AE800D0000030D1004D30D2000130D3000030AA
:100AF800D4007930D5000230D6000030D7008731D5
:100B0800D2278531003A031D8A2D8B2D8D2D00307B
:100B1800A92D8731AA278531003A031D942D952DDB
:100B2800962D8B2D8E31B22685314001CB004B0896
:100B380003199F2DA02DA12D8B2D58088600870104
:100B48007A08C03F7908C13F013008004001D1014F
:100B5800D201730874040319B22DB32DE02D0130AE
:100B6800D000BD2D0130F335F40D890BB72D0130C0
:100B7800D007F41FC02DC12DB62D0130D135D20DAF
:100B8800890BC22D74087602031DCC2D73087502DB
:100B9800031CCF2DD02DD52D7308F5027408F63B14
:100BA80051140130F436F30C890BD62D0130D002E4
:100BB800031DDF2DE02DC12D5208F4005108F3006C
:100BC8000800410111114F010F1EEB2DEC2DF02DE6
:100BD8008F31472785310B2E8F1AF32DF42DFE2DDB
:100BE800111FF72DF82DFE2D05304001AC00013006
:100BF800AB000B2E8F1E012E022E0B2E111F052E61
:100C0800062E0B2E05304001AC000230AB0040012F
:100C18002C08F100F201F135F20D20307107840043
:100C28000630723D80388500013F8A00003F0A0087
:100C380086314001AC0008008F340E34CA340E34BB
:100C4800A0340E347F34073424340734A6340E34E9
:100C5800AC340E34D1340E34D8340E343D343D34F3
:100C68003D343D343D343D343D343D343D343D34F4
:100C78003D343D343D343D343D343D343D343D34E4
:100C88003D343D343D343D343D343D343D343D34D4
:100C98003D343D343D343D343D343D340D340A3427
:100CA8000D340A340034D530F5009030F6008F3119
:100CB8006D27863140013008E3002F08E2002E0836
:100CC800E1002D08E0008231A62286312E308F31D6
:100CD8000B278631003040013C020A3003193B02E1
:100CE8000318772E782E7C2E30308F310B278631E3
:100CF80040013C08D4003B08D30084315C24863191
:100D0800CE30F5009030F6008F316D27863108001F
:100D18000030F6000030F5000030F4000030F30039
:100D28004001501C982E992EA12E5408F3075508FF
:100D3800F43D5608F53D5708F63D0130D435D50D3C
:100D4800D60DD70D890BA22E0130D336D20CD10C7B
:100D5800D00C890BA92E5308520451045004031DCA
:100D6800B62EB72E942E7608D3007508D2007408D4
:100D7800D1007308D00008004001D2005208CD000D
:100D88005008CE005108CF005130F3000030F40075
:100D98004D30F5000330F6000030F7008F31DD27C5
:100DA8008631003A031DD92EDA2EDC2E0030F12EC2
:100DB8008731AA278631003A031DE32EE42EE52E5B
:100DC800DA2E8E31B22686314001C900490803194E
:100DD800EE2EEF2EF02EDA2E013008007308740480
:100DE8000319F72EF82E1F2F0130F700022F0130BC
:100DF800F335F40D890BFC2E0130F707F41F052F8E
:100E0800062FFB2E74087602031D0C2F730875023B
:100E1800031C0F2F102F142F7308F5027408F63BCC
:100E28000130F436F30C890B152F0130F702031D3E
:100E38001E2F1F2F062F7608F4007508F3000800F0
:100E48000430F0004F010F1C2A2F2B2F502F400188
:100E5800280829040319312F322F3F2F270886002D
:100E680087014F010C08810001304001A7070130BC
:100E7800A8020030A93B280829040319442F452F4C
:100E8800492F4F0191121116512F4F0191109116B0
:100E980011160730F000512F911570080800003026
:100EA800F6000030F5000030F4000030F30076085A
:100EB800031D692F7508031D692F50307302C33055
:100EC800743B031C682F692F6A2F7E2F0130F307AC
:100ED8000030F43DF53DF63D7608031D7E2F75087C
:100EE800031D7E2F50307302C330743B031C7D2FCB
:100EF8007E2F6A2F08004001250826040319852F34
:100F0800862F992F0130A5020030A63B23088600C2
:100F18002408870001084F018C0001304001A30715
:100F28000030A43D0330F000A82F2A0803199D2F94
:100F38009E2FA42FAA014F0191140130F000A82F71
:100F48008E31D1268731F000700808000030F60095
:100F58000030F5000030F4000030F300C82F0130F5
:100F6800F3070030F43DF53DF63D7608031DC62F26
:100F7800A13073028630743B0130753B031CC52FCA
:100F8800C62FC82F0030D12F8E318C268731003ADA
:100F9800031DCF2FD02FB32F01300800F3018E315E
:100FA8008C268731003A031DDA2FDB2FF72F01300B
:100FB8004001A0005108A2005008A1000130AA0079
:100FC8005208A300A4015408A6005308A500550818
:100FD800A7005708A9005608A800AB018E31B8260B
:100FE80087310130F300730808000D340A343D34AA
:100FF8003D343D343D343D343D343D343D343D3461
:101008003D343D343D343D343D343D343D343D3450
:101018003D343D343D343D343D343D343D343D3440
:101028003D343D343D343D343D343D343D340D3460
:041038000A34003442
:101D18004001200808004001A001083008008F3168
:101D280084278E3108008531E5258E310800F300BF
:101D380073084E018D000800400121354F018C00C9
:101D4800033008008E31D1268E31F000700808006B
:101D58008E31D8268E31F0007008080040012B081B
:101D6800F300AB01730808004F0111140230400161
:101D7800AC00080074084001C6007308C5000800DC
:101D8800640080010131890BC52E00340314400121
:101D9800210D4F018C00043008004F0111158F31BF
:101DA80047278E31003008004F01901290164001ED
:101DB800A00100300800603045018D008F019101BD
:101DC800053093009201080041010C100B140030FB
:101DD800F3000030F4008E31BE268E3108007308FF
:101DE80074040319F82EF92EFE2E74084001B80069
:101DF8007308B7000800730874040319042F052F2B
:101E08000A2F74084001B6007308B5000800F400F2
:101E18008F3128278F31003A0319132F142F0C2FD5
:101E280074088E319B268F31080080304F018F0057
:101E380008309000910192014F308D0041011B152F
:101E48009B154F0190160800F3014101101F2D2F1B
:101E58002E2F352F4E01911E322F332F352F013063
:101E6800F300730808008E31DF268F318431EF24A8
:101E78008F318F3119278F318F31A0278F318E31D4
:101E8800E8268F3108004001A0010030A200FF3091
:101E9800A100A301A401A701AC01410111119111F5
:101EA8004F0190131013080059304001D8000E302C
:101EB800853131258F31003A031D632F642F662F3A
:101EC80000306C2F40015908B9005A08BA00013097
:101ED80008007A2F750884007608850000088F317D
:101EE8000B278F310130F5070030F63D7508840067
:101EF800760885001200031D822F832F6E2F08009D
:101F080006304001AC000330AB00410191114001A3
:101F18002C08F100F201F135F20D20307107840030
:101F28000630723D80388500013F8A00003F0A0074
:101F38008F314001AC00080048304E0192009030CB
:101F480090002630910040308E0003308F00003022
:101F5800F3000030F4008E31F3268F310030F300A7
:101F68000030F4008E31FF268F314101A001A1011C
:101F780008004001D001D10100308631C0268F31E0
:101F88004001D3005308031DCA2FCB2FCD2F00309B
:101F9800DC2FD001D10103308631C0268F314001BA
:101FA800D3005308031DD92FDA2FDB2FCB2F013095
:101FB8000800F8018E318C268F31003A031DE52F79
:101FC800E62FFE2F01304001A0007408A20073081C
:101FD800A100AA017508A300A4017708A600760845
:101FE800A500A701A801A901AB018E31B8268F3140
:101FF8000130F800780808002D342D342D342D34A4
:102008002D342D342D342D342D342D342D342D34C0
:102018002D342D342D342D342D342D342D342D34B0
:102028002D342D342D342D342D342D342D342D34A0
:102038002D340D340A340034453473347434613427
:10204800633469346F346E3420344D346F346E34F5
:10205800693474346F34723465346F3420344134E5
:102068006D346234693465346E34743461346C347C
:102078000D340A340034543465346D3470346534A6
:102088007234613474347534723461343A342034BF
:102098004534523452344F3452340D340A340034F7
:1020A80019340F3400340034DD340F340034003474
:1020B800D234073400340034B2340E348C340E3445
:1020C8000034003400340034563443344E344C3435
:1020D80034343234303430343A34203445345234A1
:1020E80052344F3452340D340A34003455344134A8
:1020F800523454343A342034393436343034303469
:10210800203438344E3431340D340A3400345634E3
:1021180043344E344C3434343234303430343A343A
:1021280020344F344B340D340A340034503449349D
:10213800433431343634463431343334313434343E
:1021480035340D340A340034543465346D34703405
:1021580065347234613474347534723461343A34A9
:10216800203400344C3475347A343A3420344534CD
:10217800523452344F3452340D340A340034493412
:10218800443420344C344F3457343A3420343034C7
:102198007834003420346C34753478340D340A348F
:1021A80000344C3475347A343A34203400342034D2
:0821B80043340D340A340034F5
:020000040001F9
:0A000E008F3FFF3F9F3FFF3FFF3F82
:00000001FF
