:0400000080312828FB
:100008007E14803100308600003087000B1F0D28D9
:100018000E28262841019B1D122813281B28911DF4
:10002800162817281B288E317126803126281B1D7B
:100038001E281F282628111D2228232826288E310D
:10004800752680317E10090080312A28F801F901CF
:10005800FA01473084000030850024308E31A22612
:100068008031A03084000030850011308E31A22606
:1000780080317E104001803141288731EE27803160
:100088008E31F72680318F319D2780310B178B17E2
:100098008F31812780312530F5009030F6008F317F
:1000A800502780314830F5009030F6008F315027C6
:1000B80080313E30F5009130F6008F315027803185
:1000C8001A30F5009130F6008F31502780312530F5
:1000D800F5009030F6008F3150278031A730F500B9
:1000E8009030F6008F31502780318F31BA27803118
:1000F8004001E60066080319822883288D288F317D
:1001080025278031003A031D8A288B288D28400135
:10011800E6016530F5008630F6008F3150278031D2
:1001280040016608031999289A28A2284D30F5003D
:100138009130F6008F3150278031A9282C30F500F6
:100148009130F6008F3150278031F130F500903032
:10015800F6008F31502780318B30F5009030F60053
:100168008F31502780318F313A2780318F31812765
:1001780080312530F5009030F6008F3150278031DE
:10018800C330F5009030F6008F315027803143306E
:10019800F5008630F6008F31502780314530400118
:1001A800A80085317F258031003A0319DC28DD2835
:1001B800E92840014608B7004508B6008131BE214C
:1001C800803101304001E700EB284001E70182312E
:1001D8003F228031003A0319F228F328F72801302A
:1001E8004001E600F9284001E60167080319FD28E7
:1001F800FE28022984311F2480310929DC30F500CA
:100208009030F6008F31502780314001660803197D
:100218000E290F29132986319F2680311A296A3021
:10022800F5009130F6008F31502780310030F5000D
:100238009030F6008F31502780316B30F5009030C8
:10024800F6008F31502780310230F5009030F600EB
:100258008F3150278031B728803128284001B101DB
:10026800AB1F372938294529A809A909AA09AB09C3
:10027800A80A0319A90A0319AA0A0319AB0A013023
:10028800B100AF1F482949295629AC09AD09AE0963
:10029800AF09AC0A0319AD0A0319AE0A0319AF0A6C
:1002A8000130B1060030B5000030B4000030B300B2
:1002B8000030B2002B082A042904280403196529F0
:1002C8006629A5290130B00072290130A835A90D89
:1002D800AA0DAB0D890B6A290130B007AB1F752930
:1002E800762969290130B235B30DB40DB50D890BE6
:1002F80077292B082F02031D8B292A082E02031D9C
:100308008B2929082D02031D8B2928082C02031C80
:100318008E298F2998292808AC022908AD3B2A087C
:10032800AE3B2B08AF3B32140130AB36AA0CA90CFC
:10033800A80C890B99290130B002031DA429A5290D
:10034800762931080319A929AA29B529B209B309B7
:10035800B409B509B20A0319B30A0319B40A03198F
:10036800B50A3508AB003408AA003308A9003208DA
:10037800A8000800FF3040013605BA001F303705D5
:10038800BB003B1EC829C929CD290030BA07E03077
:10039800BB3D0030AB000030AA000030A90004309B
:1003A800A8003A08A0003B08A100890D893B8909EB
:1003B800A200A3000030A7000030A6000030A5006E
:1003C8001930A4008631D426813140012308AF00BA
:1003D8002208AE002108AD002008AC00813132218E
:1003E800813140012908BD002808BC003D08DE0015
:1003F8003C08DD006430F3000030F4003D08F600EE
:100408003C08F50083311823813174084001DC0071
:100418007308DB00BD1B112A122A232A6430F3005B
:100428000030F4003D08F6003C08F5008331CD2388
:10043800813174084001DA007308D9003A2A64301F
:10044800F3000030F4003C09B8003D09B900B80ACF
:100458000319B90A3808F5003908F6008331CD23A5
:10046800813174084001DA007308D9005C08E000A3
:100478005B08DF00080035304001A80009308531ED
:1004880042258231003A031D4A2A4B2A4D2A003060
:10049800B52A40013608D8003508D7003508A0002D
:1004A8003608A100A201A3010030A7000030A60071
:1004B8000030A5001830A4008631D42682314001CE
:1004C8002308CE002208CD002108CC002008CB004C
:1004D8000030AB000030AA000330A900E830A800C3
:1004E8004E08AF004D08AE004C08AD004B08AC00FC
:1004F80083317423823140012B08CA002A08C900BD
:100508002908C8002808C7000030AB000030AA003E
:100518000030A9000A30A8004E08A7004D08A60020
:100528004C08A5004B08A4000030A3000030A2002E
:100538000330A100E830A0008431B72482314001A3
:100548002308AF002208AE002108AD002008AC0047
:1005580083317423823140012908D6002808D50048
:10056800013008004001C401380837043604350456
:10057800031DBF2AC02AFE2A30308E31E926823177
:10058800172B4408393E860087010030A30000304D
:10059800A2000030A1000A30A0003808A7003708E0
:1005A800A6003608A5003508A4008431B724823196
:1005B80040012008303E81000030AB000030AA0026
:1005C8000030A9000A30A8003808AF003708AE008C
:1005D8003608AD003508AC00833174238231400100
:1005E8002B08B8002A08B7002908B6002808B50063
:1005F8000130C4073808370436043504031D052BB9
:10060800062BC52A112B0130C4024408393E860046
:10061800870101088E31E926823140014408031D13
:10062800162B172B072B08004001A101F41F1D2BC7
:100638001E2B252BF309F409F30A0319F40A0130D8
:10064800A100F61F282B292B302BF509F609F50AEE
:100658000319F60A0130A106A201A3017308740464
:100668000319372B382B652B0130A000422B0130A2
:10067800F335F40D890B3C2B0130A007F41F452BF3
:10068800462B3B2B0130A235A30D890B472B740851
:100698007602031D512B73087502031C542B552B2E
:1006A8005A2B7308F5027408F63B22140130F4360D
:1006B800F30C890B5B2B0130A002031D642B652B07
:1006C800462B21080319692B6A2B6F2BA209A30952
:1006D800A20A0319A30A2308F4002208F300080059
:1006E80000304001B4000030B3000030B2000030E8
:1006F800B1002B082A04290428040319842B852B0C
:10070800C42B0130B000912B0130A835A90DAA0DDA
:10071800AB0D890B892B0130B007AB1F942B952BA0
:10072800882B0130B135B20DB30DB40D890B962B62
:100738002B082F02031DAA2B2A082E02031DAA2B01
:1007480029082D02031DAA2B28082C02031CAD2BF7
:10075800AE2BB72B2808AC022908AD3B2A08AE3BC4
:100768002B08AF3B31140130AB36AA0CA90CA80CEE
:10077800890BB82B0130B002031DC32BC42B952B5A
:100788003408AB003308AA003208A9003108A800D1
:1007980008004001A101F61FD22BD32BDA2BF50953
:1007A800F609F50A0319F60A0130A100F41FDD2B3A
:1007B800DE2BE32BF309F409F30A0319F40A73088F
:1007C80074040319E82BE92B102C0130A000F32B3B
:1007D8000130F335F40D890BED2B0130A007F41F20
:1007E800F62BF72BEC2B74087602031DFD2B7308F0
:1007F8007502031C002C012C052C7308F5027408E3
:10080800F63B0130F436F30C890B062C0130A002BC
:10081800031D0F2C102CF72B21080319142C152C51
:100828001A2CF509F609F50A0319F60A7608F400F0
:100838007508F30008005C30F5009130F6008F3140
:10084800502784314001DE1F2A2C2B2C2F2C2D30D1
:100858008E31E92684314001DC1B332C342C392CB1
:100868005C08AF005B08AE00442C5B09AC005C0977
:10087800AD00AC0A0319AD0A2C08AE002D08AF0074
:100888002F08A4002E08A30084316D2484312E3053
:100898008E31E9268431003040015A020A300319AA
:1008A80059020318582C592C5D2C30308E31E9260A
:1008B800843140015A08A4005908A30084316D24EA
:1008C80084318430F5009130F6008F31502784311F
:1008D80008004001AB0123082404031D742C752C67
:1008E8009F2C30308E31E9268431B62C2B08253EDA
:1008F800860087010A30F3000030F4002408F6006F
:100908002308F50087313A2784317308303E810087
:100918000A30F3000030F40040012408F6002308F0
:10092800F5008531BB25843174084001A4007308A3
:10093800A3000130AB0723082404031DA42CA52C15
:100948007A2CB02C0130AB022B08253E860087019B
:1009580001088E31E926843140012B08031DB52C8E
:10096800B62CA62C080040012308220421042004E8
:100978000319BF2CC02CF72C0130F300CC2C01300C
:10098800A035A10DA20DA30D890BC42C0130F307CE
:10099800A31FCF2CD02CC32C23082702031DDE2C29
:1009A80022082602031DDE2C21082502031DDE2C49
:1009B80020082402031CE12CE22CEA2C2008A402C3
:1009C8002108A53B2208A63B2308A73B0130A336F4
:1009D800A20CA10CA00C890BEB2C0130F302031D17
:1009E800F62CF72CD02C2708A3002608A2002508EF
:1009F800A1002408A0000800400198015030990087
:100A080010309A0037309200F0309300EF309400A5
:100A180037307D018C00A0309600CF30A0008D01CA
:100A28009701A1018E019801A20137308F00F030A3
:100A38009900FF30A3003F309000A0309A00CF30DB
:100A4800A40015307C01C20013307B01A0000E30D9
:100A58007C01C7001B307B019A000C307C01C80068
:100A68001C307B0198007D019101920193019B014B
:100A78009C019D01A501A601A7010800F7007708C0
:100A88004001E800F901FA015130A0000030A1004E
:100A98006830A2000130A3000030A4007930A5001E
:100AA8000230A6000030A700863168268531003A5A
:100AB800031D5F2D602D622D00307E2D8731C627E6
:100AC8008531003A031D692D6A2D6B2D602D8E31FD
:100AD800902685314001E50065080319742D752DB0
:100AE800762D602D2808860087017908C03F7A088E
:100AF800C13F0130080005304001E800F901FA0162
:100B08001C30A0000030A1006830A2000130A30012
:100B18000030A4007930A5000230A6000030A700FC
:100B2800863168268531003A031D9B2D9C2D9E2D0C
:100B38000030BA2D8731C6278531003A031DA52D0F
:100B4800A62DA72D9C2D8E3190268531F80078088A
:100B58000319AF2DB02DB12D9C2D4001280886001A
:100B680087017A08C03F7908C13F01300800400179
:100B7800A101A201730874040319C32DC42DF12D1A
:100B88000130A000CE2D0130F335F40D890BC82DAE
:100B98000130A007F41FD12DD22DC72D0130A1356A
:100BA800A20D890BD32D74087602031DDD2D730861
:100BB8007502031CE02DE12DE62D7308F50274087B
:100BC800F63B21140130F436F30C890BE72D013084
:100BD800A002031DF02DF12DD22D2208F4002108CA
:100BE800F3000800410111114F010F1EFC2DFD2DCE
:100BF800012E8F31152785311C2E8F1A042E052EB4
:100C08000F2E111F082E092E0F2E05304101AC00A2
:100C18000130AB001C2E8F1E122E132E1C2E111FFE
:100C2800162E172E1C2E05304101AC000230AB00E9
:100C380041012C08F100F201F135F20D3130710754
:100C480084000630723D80388500013F8A00003FED
:100C58000A0086314101AC0008006D340E34A83416
:100C68000E347E340E349B3407346C3407348434A9
:100C78000E348A340E34AF340E34B6340E343D3468
:100C88003D343D343D343D343D343D343D343D34D4
:100C98003D343D343D343D343D343D343D343D34C4
:100CA8003D343D343D343D343D343D343D343D34B4
:100CB8003D343D343D343D343D343D343D340D34D4
:100CC8000A340D340A340034F3018E316A26863131
:100CD800003A031D702E712E9D2E01304101A00097
:100CE800400121084101A200400120084101A10062
:100CF8000130AA00400122084101A300A4014001DB
:100D080024084101A600400123084101A500400133
:100D180025084101A700400127084101A900400119
:100D280026084101A800AB018E3196268631013094
:100D3800F300730808007E30F5009130F6008F311B
:100D48005027863140014A08B8004908B7004808CA
:100D5800B6004708B5008231B62286312E308E3172
:100D6800E92686310030400156020A30031955023F
:100D78000318BF2EC02EC42E30308E31E92686319E
:100D880040015608A4005508A30084316D2486311B
:100D98007730F5009130F6008F3150278631080002
:100DA8000030F6000030F5000030F4000030F300A9
:100DB8004001201CE02EE12EE92E2408F307250827
:100DC800F43D2608F53D2708F63D0130A435A50D6C
:100DD800A60DA70D890BEA2E0130A336A20CA10C93
:100DE800A00C890BF12E2308220421042004031DE2
:100DF800FE2EFF2EDC2E7608A3007508A2007408CC
:100E0800A1007308A00008004001A3002308E8001F
:100E18002108E9002208EA005130F3000030F4000C
:100E28006830F5000330F6000030F7008F31DA271C
:100E38008731003A031D212F222F242F0030392F0C
:100E48008731C6278731003A031D2B2F2C2F2D2FD2
:100E5800222F8E31902687314001E500650803195D
:100E6800362F372F382F222F0130080073087404CB
:100E780003193F2F402F672F0130F7004A2F013009
:100E8800F335F40D890B442F0130F707F41F4D2F6C
:100E98004E2F432F74087602031D542F73087502D2
:100EA800031C572F582F5C2F7308F5027408F63B64
:100EB8000130F436F30C890B5D2F0130F702031D66
:100EC800662F672F4E2F7608F4007508F300080088
:100ED8000430F0004F010F1C722F732F982F41011F
:100EE800280829040319792F7A2F872F27088600C5
:100EF80087014F010C08810001304101A70701302B
:100F0800A8020030A93B2808290403198C2F8D2F2B
:100F1800912F4F0191121116992F4F01911091168F
:100F280011160730F000992F91157008080041013B
:100F3800250826040319A12FA22FB52F0130A502D9
:100F48000030A63B230886002408870001084F01CB
:100F58008C0001304101A3070030A43D0330F000AC
:100F6800C42F2A080319B92FBA2FC02FAA014F017D
:100F780091140130F000C42F8E31AF268731F00074
:100F8800700808000030F6000030F5000030F4006A
:100F98000030F300E42F0130F3070030F43DF53D55
:100FA800F63D7608031DE22FA13073028630743BAC
:100FB8000130753B031CE12FE22FE42F0030ED2FA9
:100FC8008E316A268731003A031DEB2FEC2FCF2F85
:100FD800013008008E31BD268731853100258731E3
:100FE8008E31F72687318F319D2787318E31C6267E
:040FF8008731080035
:101CD4004101200808004101A001083008008F31AB
:101CE40067278E3108008531F6258E310800F30010
:101CF40073084E018D000800410121354F018C000D
:101D0400033008008E31AF268E31F00070080800D1
:101D14008E31B6268E31F0007008080041012B0880
:101D2400F300AB01730808004F01111402304101A4
:101D3400AC00080074084001E2007308E1000800E8
:101D4400640080010131890BA32E00340314410186
:101D5400210D4F018C00043008004F0111158F3103
:101D640015278E31003008004F0190129016410162
:101D7400A00100300800603045018D008F01910101
:101D8400053093009201080041010C100B1400303F
:101D9400F3000030F4008E319C268E310800730865
:101DA40074040319D62ED72EDC2E74084001D200F9
:101DB4007308D1000800730874040319E22EE32E9B
:101DC400E82E74084001D0007308CF000800F40026
:101DD4008F3106278E31003A0319F12EF22EEA2EA6
:101DE40074088E3179268E31080080304F018F00BF
:101DF40008309000910192014F308D0041011B1574
:101E04009B154F0190160800F3014101101F0B2F81
:101E14000C2F132F4E01911E102F112F132F013051
:101E2400F300730808004101A0010030A200FF3054
:101E3400A100A301A401A701AC01111191114F014B
:101E440090131013080029304001A8000E3085318A
:101E540042258F31003A031D302F312F332F0030AC
:101E6400392F40012908D3002A08D4000130080082
:101E7400F5012930F4009630F3007F30890B402FB0
:101E8400F30B402FF40B402F00000130F507033013
:101E94007502031C4E2F4F2F3B2F08005D2F750832
:101EA40084007608850000088E31E9268F310130E0
:101EB400F5070030F63D75088400760885001200A9
:101EC400031D652F662F512F080006304101AC0019
:101ED4000330AB0091112C08F100F201F135F20D41
:101EE4003130710784000630723D80388500013F2F
:101EF4008A00003F0A008F314101AC0008001B300A
:101F04008E31E9268F315B308E31E9268F3189306D
:101F1400F5009130F6008F3150278F311B308E3110
:101F2400E9268F315B308E31E9268F3148308E318E
:101F3400E9268F31080048304E019200903090001D
:101F44002630910040308E0003308F000030F300C3
:101F54000030F4008E31D1268F310030F300003090
:101F6400F4008E31DD268F314101AD01AE01080050
:101F74004001A101A2010030873108278F314001BF
:101F8400A4002408031DC72FC82FCA2F0030D92F3F
:101F9400A101A2010330873108278F314001A40039
:101FA4002408031DD62FD72FD82FC82F013008009F
:101FB4004001A0018E316A268F31003A031DE32FC0
:101FC400E42FFD2F01304101A0007408A200730822
:101FD400A100AA017508A300A4017708A600760849
:101FE400A500A701A801A901AB018E3196268F3166
:101FF40001304001A0004001200808000D340A34DB
:102004002D342D342D342D342D342D342D342D34C4
:102014002D342D342D342D342D342D342D342D34B4
:102024002D342D342D342D342D342D342D342D34A4
:102034002D342D342D342D342D342D342D342D3494
:102044000D340A3400343D343D343D343D343D34A4
:102054003D343D343D343D343D343D343D343D34F4
:102064003D343D343D343D343D343D343D343D34E4
:102074003D343D343D343D343D343D343D343D34D4
:102084003D343D343D340D340A3400342034453479
:10209400533454344134433449344F344E3420346B
:1020A4004434453420344D344F344E34493454345C
:1020B4004F34523445344F34203441344D34423457
:1020C400493445344E34543441344C340D340A3498
:1020D4000034413463347434753461346C34693499
:1020E4007A346134633469346F346E342034633445
:1020F40061346434613420343334203473346534CB
:10210400673475346E3464346F3473340D340A3484
:1021140000340D340A3443346F346D3465346E3412
:102124007A3461346E3464346F3420346D346F34F3
:102134006E34693474346F34723465346F342E34CD
:102144002E342E340D340A34003449346E34693458
:102154006334693461346C3469347A3461346E3490
:1021640064346F342034733465346E3473346F34B0
:102174007234653473342E342E342E340D340A34D0
:1021840000342034203420344D344F344E34493418
:1021940054344F34523445344F34203441344D3464
:1021A4004234493445344E34543441344C340D347F
:1021B4000A340034543465346D3470346534723404
:1021C400613474347534723461343A3420344534AF
:1021D400523452344F3452340D340A3400344D34B2
:1021E4004334503439343834303438343A34203485
:1021F40070347234653470346134723461346434EC
:102204006F340D340A340034F7340E34003400349F
:10221400DA340F34003400346834063400340034C3
:1022240090340E346A340E340034003400340034F4
:10223400203455344134523454343A34203439340B
:10224400363430343034203438344E3431340D3470
:102254000A340034563443344E344C343434323437
:10226400303430343A3420344534523452344F34D8
:1022740052340D340A340034203450344934433455
:1022840031343634463431343334313434343534FF
:102294000D340A340034563443344E344C3434341C
:1022A4003234303430343A3420344F344B340D34F7
:1022B4000A340034543465346D3470346534723403
:1022C400613474347534723461343A3420340034F3
:1022D4004C3475347A343A342034453452345234DC
:1022E4004F3452340D340A34003420346C34753491
:1022F40078340D340A3400344C3475347A343A3436
:1023040020340034203443340D340A34003432345D
:042314004A34003413
:020000040001F9
:0A000E008F3FFF3F9F3FFF3FFF3F82
:00000001FF
