:0400000080312828FB
:100008007E14803100308600003087000B1F0D28D9
:100018000E28262841019B1D122813281B28911DF4
:10002800162817281B288631D226803126281B1D22
:100038001E281F282628111D222823282628863115
:10004800CE2680317E10090080312A28F901FA0174
:1000580020308400003085002E308631A42680317F
:100068007E1040018131CD294001DF01D91F3D2893
:100078003E284B28D609D709D809D909D60A031921
:10008800D70A0319D80A0319D90A0130DF00DD1F7E
:100098004E284F285C28DA09DB09DC09DD09DA0A71
:1000A8000319DB0A0319DC0A0319DD0A0130DF062C
:1000B8000030E3000030E2000030E1000030E000F2
:1000C800590858045704560403196B286C28AB28A0
:1000D8000130DE0078280130D635D70DD80DD90D7E
:1000E800890B70280130DE07D91F7B287C286F28F0
:1000F8000130E035E10DE20DE30D890B7D2859084B
:100108005D02031D912858085C02031D91285708B9
:100118005B02031D912856085A02031C942895284F
:100128009E285608DA025708DB3B5808DC3B59087A
:10013800DD3B60140130D936D80CD70CD60C890BAE
:100148009F280130DE02031DAA28AB287C285F08FF
:100158000319AF28B028BB28E009E109E209E3093F
:10016800E00A0319E10A0319E20A0319E30A63081A
:10017800D9006208D8006108D7006008D6000800D6
:1001880060304001D600093083318A238031003A3B
:10019800031DCF28D028D22800304B294001610800
:1001A800BE006008BD006008CE006108CF00D00125
:1001B800D1010030D5000030D4000030D300183011
:1001C800D20084317924803140015108B4005008AC
:1001D800B3004F08B2004E08B1000030D90000301B
:1001E800D8000330D700E830D6003408DD003308E3
:1001F800DC003208DB003108DA00823197228031D6
:1002080040015908B0005808AF005708AE0056081A
:10021800AD000030D9000030D8000030D7000A30D7
:10022800D6003408D5003308D4003208D30031088A
:10023800D2000030D1000030D0000330CF00E830C9
:10024800CE0083314123803140015108DD00500840
:10025800DC004F08DB004E08DA008231972280313B
:1002680040015708BC005608BB005E30D600083075
:1002780083318A238031003A031D432944294529C3
:10028800D02840015F08BA005E08B90001300800B4
:10029800FF3040016405E8001F306505E900691E6C
:1002A800562957295B290030E807E030E93D00303E
:1002B800D9000030D8000030D7000430D6006808D4
:1002C800CE006908CF00890D893B8909D000D1008B
:1002D8000030D5000030D4000030D3001930D200EF
:1002E80084317924813140015108DD005008DC0057
:1002F8004F08DB004E08DA00803138208131400198
:100308005708EB005608EA006B08C4006A08C300E7
:100318006430F3000030F4006B08F6006A08F5005A
:1003280082313B22813174084001C2007308C10048
:10033800EB1B9F29A029B1296430F3000030F40099
:100348006B08F6006A08F5008231F02281317408E2
:100358004001C0007308BF00C8296430F3000030B2
:10036800F4006A09E6006B09E700E60A0319E70AE0
:100378006608F5006708F6008231F02281317408BA
:100388004001C0007308BF004208C6004108C5000C
:10039800080086316E26813186315F268131400121
:1003A800C501C601C301C401C101C201BF01C00129
:1003B800CA01C901BD01BE010030B4000030B3005C
:1003C8000030B2000030B1000030B0000030AF00A3
:1003D8000030AE000030AD00BB01BC01B901BA016C
:1003E800B701B801C801C7010B178B178531D7258D
:1003F80081314001C80048080319032A042A0E2A3B
:10040800863113268131003A031D0B2A0C2A0E2A45
:100418004001C8016C304001D6008331C7238131C7
:10042800003A0319182A192A252A40016D08E500FF
:100438006C08E40081314C21813101304001CA004F
:10044800272A4001CA018031C4208131003A0319AA
:100458002E2A2F2A332A01304001C800352A4001AC
:10046800C80185310E2581310E2A803128284001A6
:10047800CF01F41F402A412A482AF309F409F30A54
:100488000319F40A0130CF00F61F4B2A4C2A532ACD
:10049800F509F609F50A0319F60A0130CF06D00165
:1004A800D1017308740403195A2A5B2A882A013077
:1004B800CE00652A0130F335F40D890B5F2A01302F
:1004C800CE07F41F682A692A5E2A0130D035D10D7B
:1004D800890B6A2A74087602031D742A7308750248
:1004E800031C772A782A7D2A7308F5027408F63BDC
:1004F80050140130F436F30C890B7E2A0130CE02F9
:10050800031D872A882A692A4F0803198C2A8D2AED
:10051800922AD009D109D00A0319D10A5108F40046
:100528005008F30008000030F7000030F6000030F3
:10053800F5000030F40040015908580457045604E7
:100548000319A72AA82AE72A0130F800B42A01309B
:10055800D635D70DD80DD90D890BAC2A0130F8073F
:10056800D91FB72AB82AAB2A0130F435F50DF60D94
:10057800F70D890BB92A59085D02031DCD2A5808C1
:100588005C02031DCD2A57085B02031DCD2A5608BD
:100598005A02031CD02AD12ADA2A5608DA02570846
:1005A800DB3B5808DC3B5908DD3B74140130D93675
:1005B800D80CD70CD60C890BDB2A0130F802031DA6
:1005C800E62AE72AB82A7708D9007608D8007508F5
:1005D800D7007408D6000800F801F61FF42AF52A97
:1005E800FC2AF509F609F50A0319F60A0130F8009C
:1005F800F41FFF2A002B052BF309F409F30A03194A
:10060800F40A7308740403190A2B0B2B322B0130DC
:10061800F700152B0130F335F40D890B0F2B013042
:10062800F707F41F182B192B0E2B74087602031DDD
:100638001F2B73087502031C222B232B272B7308EF
:10064800F5027408F63B0130F436F30C890B282BBD
:100658000130F702031D312B322B192B78080319AF
:10066800362B372B3C2BF509F609F50A0319F60A40
:100678007608F4007508F30008004001510850049A
:100688004F044E040319492B4A2B812B0130F300E8
:10069800562B0130CE35CF0DD00DD10D890B4E2BF9
:1006A8000130F307D11F592B5A2B4D2B51085502F6
:1006B800031D682B50085402031D682B4F08530272
:1006C800031D682B4E085202031C6B2B6C2B742BDA
:1006D8004E08D2024F08D33B5008D43B5108D53BB3
:1006E8000130D136D00CCF0CCE0C890B752B0130D4
:1006F800F302031D802B812B5A2B5508D100540877
:10070800D0005308CF005208CE000800F700770841
:100718004001CB00F901FA015130CE000030CF0082
:100728004B30D0000130D1000030D2007930D300F6
:100738000230D4000030D50085318D258331003A50
:10074800031DA72BA82BAA2B0030C62B85316525A6
:100758008331003A031DB12BB22BB32BA82B863162
:10076800B62683314001C70047080319BC2BBD2BAF
:10077800BE2BA82B5608860087017908C03F7A0847
:10078800C13F0130080005304001CB00F901FA01F2
:100798001C30CE000030CF004B30D0000130D100EB
:1007A8000030D2007930D3000230D4000030D500B8
:1007B80085318D258331003A031DE32BE42BE62B8D
:1007C8000030022C853165258331003A031DED2B5D
:1007D800EE2BEF2BE42B8631B62683314001C9007E
:1007E80049080319F82BF92BFA2BE42B5608860035
:1007F80087017A08C03F7908C13F013008004001ED
:100808009801503099009A0137309200F0309300E7
:10081800FF30940037307D018C00A0309600FF3007
:10082800A0008D019701A1018E019801A201373026
:100838008F00F0309900FF30A3003F309000A030C7
:100848009A00FF30A4000E307C01C7001B307B01EA
:100858009A000C307C01C8001C307B0198007D0197
:100868009101920193019B019C019D01A501A601A3
:10087800A7010800410111114F010F1E442C452CFE
:10088800492C86314E268431642C8F1A4C2C4D2CE1
:10089800572C111F502C512C572C05304001AC00FF
:1008A8000130AB00642C8F1E5A2C5B2C642C111F5A
:1008B8005E2C5F2C642C05304001AC000230AB008C
:1008C80040012C08F100F201F135F20D3C307107BE
:1008D80084000630723D80388500013F8A00003F61
:1008E8000A0084314001AC0008000030F6000030F6
:1008F800F5000030F4000030F30040014E1C852C58
:10090800862C8E2C5208F3075308F43D5408F53D05
:100918005508F63D0130D235D30DD40DD50D890BD0
:100928008F2C0130D136D00CCF0CCE0C890B962CE5
:10093800510850044F044E04031DA32CA42C812CF1
:100948007608D1007508D0007408CF007308CE006F
:1009580008004001D0005008CB004E08CC004F08DA
:10096800CD005130F3000030F4004B30F500033077
:10097800F6000030F7008531B4258431003A031DB4
:10098800C62CC72CC92C0030DE2C85316525843156
:10099800003A031DD02CD12CD22CC72C8631B62678
:1009A80084314001C70047080319DB2CDC2CDD2CFF
:1009B800C72C013008000430F0004F010F1CE52C53
:1009C800E62C0B2D4001280829040319EC2CED2CEA
:1009D800FA2C2708860087014F010C088100013096
:1009E8004001A7070130A8020030A93B28082904C4
:1009F8000319FF2C002D042D4F01911211160C2DF7
:100A08004F019110911611160730F0000C2D911519
:100A1800700808000030F6000030F5000030F400DF
:100A28000030F3007608031D242D7508031D242DBE
:100A380050307302C330743B031C232D242D252D05
:100A4800392D0130F3070030F43DF53DF63D7608C9
:100A5800031D392D7508031D392D50307302C3301D
:100A6800743B031C382D392D252D0800400125081D
:100A780026040319402D412D542D0130A5020030C4
:100A8800A63B230886002408870001084F018C0034
:100A980001304001A3070030A43D0330F000632D6E
:100AA8002A080319582D592D5F2DAA014F019114B9
:100AB8000130F000632D863196268531F0007008EC
:100AC80008000030F6000030F5000030F400003077
:100AD800F300832D0130F3070030F43DF53DF63D7A
:100AE8007608031D812DA13073028630743B0130D6
:100AF800753B031C802D812D832D00308C2D863174
:100B0800DA268531003A031D8A2D8B2D6E2D013092
:100B18000800F3018631DA268531003A031D952D48
:100B2800962DB22D01304001A0004F08A2004E08BA
:100B3800A1000130AA005008A300A4015208A60091
:100B48005108A5005308A7005508A9005408A80093
:100B5800AB018631B02685310130F30073080800F7
:100B6800F8018631DA268531003A031DBC2DBD2DEA
:100B7800D52D01304001A0007408A2007308A1001F
:100B8800AA017508A300A4017708A6007608A500A5
:100B9800A701A801A901AB018631B0268531013032
:100BA800F800780808004001CE01CF0100308431F8
:100BB800AD2485314001D1005108031DE42DE52DF8
:100BC800E72D0030F62DCE01CF0103308431AD245E
:100BD80085314001D1005108031DF32DF42DF52D69
:100BE800E52D0130080006304001AC000330AB00B1
:100BF8004101911140012C08F100F201F135F20D8B
:100C08003C30710784000630723D80388500013F12
:100C18008A00003F0A0086314001AC0008005730C6
:100C28004001D6000E3083318A238631003A031DF5
:100C38001E2E1F2E212E0030272E40015708B700E8
:100C48005808B800013008005F3406340034003416
:100C5800B4340534003400348D34053400340034A1
:100C6800B6340634DA340634003400340034003440
:100C7800D63406349D340634C83406343A34053440
:100C8800DF340434C2340634BC34063496340634B3
:100C98008F3406344001A0010030A200FF30A100CB
:100CA800A301A401A701AC014101111191114F0148
:100CB80090131013080080304F018F000830900007
:100CC800910192014F308D0041011B159B154F0179
:100CD80090160800863186268631843103248631B1
:100CE80086315F26863186317B26863108004101B0
:100CF8000C100B140030F3000030F4008631AA26E3
:100D080086310800603045018D008F019101053062
:100D18009300920108004F01901290164001A00123
:100D2800003008004F01111586314E2686310030FB
:100D3800080003144001210D4F018C000430080005
:100D4800640080010131890BA52E0034740840012C
:100D5800EF007308EE0008004F0111140230400143
:100D6800AC00080040012B08F300AB017308080031
:100D780086318F268631F000700808008631962665
:100D88008631F00070080800400121354F018C00C1
:100D98000330080084313E24863108008531F72568
:100DA800863108004001A0010830080040012008F1
:020DB800080031
:020000040001F9
:0A000E008F3FFF3F9F3FFF3FFF3F82
:00000001FF
