:0400000080312828FB
:100008007E14803100308600003087000B1F0D28D9
:100018000E28262841019B1D122813281B28911DF4
:10002800162817281B288631C126803126281B1D33
:100038001E281F282628111D222823282628863115
:10004800BD2680317E10090080312A28F901FA0185
:1000580020308400003085002E3086319326803190
:100068007E1040018131BC294001DF01D91F3D28A4
:100078003E284B28D609D709D809D909D60A031921
:10008800D70A0319D80A0319D90A0130DF00DD1F7E
:100098004E284F285C28DA09DB09DC09DD09DA0A71
:1000A8000319DB0A0319DC0A0319DD0A0130DF062C
:1000B8000030E3000030E2000030E1000030E000F2
:1000C800590858045704560403196B286C28AB28A0
:1000D8000130DE0078280130D635D70DD80DD90D7E
:1000E800890B70280130DE07D91F7B287C286F28F0
:1000F8000130E035E10DE20DE30D890B7D2859084B
:100108005D02031D912858085C02031D91285708B9
:100118005B02031D912856085A02031C942895284F
:100128009E285608DA025708DB3B5808DC3B59087A
:10013800DD3B60140130D936D80CD70CD60C890BAE
:100148009F280130DE02031DAA28AB287C285F08FF
:100158000319AF28B028BB28E009E109E209E3093F
:10016800E00A0319E10A0319E20A0319E30A63081A
:10017800D9006208D8006108D7006008D6000800D6
:10018800FF3040016405E8001F306505E900691E7D
:10019800CE28CF28D3280030E807E030E93D0030EA
:1001A800D9000030D8000030D7000430D6006808E5
:1001B800CE006908CF00890D893B8909D000D1009C
:1001C8000030D5000030D4000030D3001930D20000
:1001D80084316824803140015108DD005008DC007A
:1001E8004F08DB004E08DA008031382080314001AA
:1001F8005708EB005608EA006B08C2006A08C100FD
:100208006430F3000030F4006B08F6006A08F5006B
:1002180082312A22803174084001C0007308BF006F
:10022800EB1B1729182929296430F3000030F40042
:100238006B08F6006A08F5008231DF228031740805
:100248004001BE007308BD0040296430F30000304F
:10025800F4006A09E6006B09E700E60A0319E70AF1
:100268006608F5006708F6008231DF2280317408DD
:100278004001BE007308BD004008C4003F08C30029
:1002880008005E304001D60009308331792381317E
:10029800003A031D5029512953290030BB29400138
:1002A8005F08BC005E08BB005E08CE005F08CF0098
:1002B800D001D1010030D5000030D4000030D30087
:1002C8001830D20084316824813140015108B400CB
:1002D8005008B3004F08B2004E08B1000030D900F2
:1002E8000030D8000330D700E830D6003408DD00ED
:1002F8003308DC003208DB003108DA00823186225C
:10030800813140015908B0005808AF005708AE00C5
:100318005608AD000030D9000030D8000030D700B2
:100328000A30D6003408D5003308D4003208D30088
:100338003108D2000030D1000030D0000330CF00A7
:10034800E830CE0083313023813140015108DD008F
:100358005008DC004F08DB004E08DA0082318622A4
:10036800813140015708BA005608B9000130080029
:1003780086315D26813186314E2681314001C301A7
:10038800C401C101C201BF01C001BD01BE01CA0152
:10039800C901BB01BC010030B4000030B30000301B
:1003A800B2000030B1000030B0000030AF000030C3
:1003B800AE000030AD00B901BA01B701B801B5010E
:1003C800B601C801C7010B178B178531C6258131C6
:1003D8004001C80048080319F229F329FD2986318C
:1003E80002268131003A031DFA29FB29FD29400123
:1003F800C8016C304001D6008331B6238131003A00
:100408000319072A082A142A40016D08E5006C0818
:10041800E4008031C420813101304001CA00162A2D
:100428004001CA01813145218131003A03191D2A51
:100438001E2A222A01304001C800242A4001C8018E
:100448008431FD248131FD29803128284001CF01E4
:10045800F41F2F2A302A372AF309F409F30A03195B
:10046800F40A0130CF00F61F3A2A3B2A422AF5093E
:10047800F609F50A0319F60A0130CF06D001D101B1
:10048800730874040319492A4A2A772A0130CE00CE
:10049800542A0130F335F40D890B4E2A0130CE076A
:1004A800F41F572A582A4D2A0130D035D10D890B0F
:1004B800592A74087602031D632A73087502031CFF
:1004C800662A672A6C2A7308F5027408F63B5014EA
:1004D8000130F436F30C890B6D2A0130CE02031D6E
:1004E800762A772A582A4F0803197B2A7C2A812AD8
:1004F800D009D109D00A0319D10A5108F4005008CB
:10050800F30008000030F7000030F6000030F50076
:100518000030F400400159085804570456040319E0
:10052800962A972AD62A0130F800A32A0130D63510
:10053800D70DD80DD90D890B9B2A0130F807D91F83
:10054800A62AA72A9A2A0130F435F50DF60DF70DDB
:10055800890BA82A59085D02031DBC2A58085C02A9
:10056800031DBC2A57085B02031DBC2A56085A0201
:10057800031CBF2AC02AC92A5608DA025708DB3BDF
:100588005808DC3B5908DD3B74140130D936D80CC7
:10059800D70CD60C890BCA2A0130F802031DD52ABC
:1005A800D62AA72A7708D9007608D8007508D70070
:1005B8007408D6000800F801F61FE32AE42AEB2A9B
:1005C800F509F609F50A0319F60A0130F800F41FCF
:1005D800EE2AEF2AF42AF309F409F30A0319F40AB4
:1005E800730874040319F92AFA2A212B0130F70039
:1005F800042B0130F335F40D890BFE2A0130F7077F
:10060800F41F072B082BFD2A74087602031D0E2BF6
:1006180073087502031C112B122B162B7308F50295
:100628007408F63B0130F436F30C890B172B0130B4
:10063800F702031D202B212B082B78080319252BE3
:10064800262B2B2BF509F609F50A0319F60A760865
:10065800F4007508F30008004001510850044F04E5
:100668004E040319382B392B702B0130F300452B1E
:100678000130CE35CF0DD00DD10D890B3D2B01307A
:10068800F307D11F482B492B3C2B51085502031D5A
:10069800572B50085402031D572B4F085302031DB4
:1006A800572B4E085202031C5A2B5B2B632B4E0808
:1006B800D2024F08D33B5008D43B5108D53B0130F8
:1006C800D136D00CCF0CCE0C890B642B0130F30241
:1006D800031D6F2B702B492B5508D1005408D000EF
:1006E8005308CF005208CE000800F70077084001F1
:1006F800CB00F901FA015130CE000030CF004B3069
:10070800D0000130D1000030D2007930D30002305F
:10071800D4000030D50085317C258331003A031D93
:10072800962B972B992B0030B52B85315425833187
:10073800003A031DA02BA12BA22B972B8631A526AF
:1007480083314001C70047080319AB2BAC2BAD2BF5
:10075800972B5608860087017908C03F7A08C13F61
:100768000130080005304001CB00F901FA011C30C6
:10077800CE000030CF004B30D0000130D100003027
:10078800D2007930D3000230D4000030D500853152
:100798007C258331003A031DD22BD32BD52B003077
:1007A800F12B853154258331003A031DDC2BDD2BD9
:1007B800DE2BD32B8631A52683314001C900490899
:1007C8000319E72BE82BE92BD32B56088600870162
:1007D8007A08C03F7908C13F0130080040019801FC
:1007E800503099009A0137309200F0309300FF3072
:1007F800940037307D018C00A0309600FF30A000B7
:100808008D019701A1018E019801A20137308F0057
:10081800F0309900FF30A3003F309000A0309A00DC
:10082800FF30A4000E307C01C7001B307B019A000A
:100838000C307C01C8001C307B0198007D019101BF
:10084800920193019B019C019D01A501A601A701AD
:100858000800410111114F010F1E332C342C382C84
:1008680086313D268431532C8F1A3B2C3C2C462C48
:10087800111F3F2C402C462C05304001AC000130A4
:10088800AB00532C8F1E492C4A2C532C111F4D2C76
:100898004E2C532C05304001AC000230AB00400117
:1008A8002C08F100F201F135F20D2B3071078400AC
:1008B8000630723D80388500013F8A00003F0A00FB
:1008C80084314001AC0008000030F6000030F5002B
:1008D8000030F4000030F30040014E1C742C752CDD
:1008E8007D2C5208F3075308F43D5408F53D55088C
:1008F800F63D0130D235D30DD40DD50D890B7E2CA4
:100908000130D136D00CCF0CCE0C890B852C510878
:1009180050044F044E04031D922C932C702C76081F
:10092800D1007508D0007408CF007308CE00080005
:100938004001D0005008CB004E08CC004F08CD0035
:100948005130F3000030F4004B30F5000330F6006E
:100958000030F7008531A3258431003A031DB52CFA
:10096800B62CB82C0030CD2C853154258431003A72
:10097800031DBF2CC02CC12CB62C8631A526843172
:100988004001C70047080319CA2CCB2CCC2CB62C25
:10099800013008000430F0004F010F1CD42CD52C76
:1009A800FA2C4001280829040319DB2CDC2CE92C3B
:1009B8002708860087014F010C088100013040019B
:1009C800A7070130A8020030A93B28082904031909
:1009D800EE2CEF2CF32C4F0191121116FB2C4F012A
:1009E8009110911611160730F000FB2C9115700824
:1009F80008000030F6000030F5000030F400003048
:100A0800F3007608031D132D7508031D132D5030B0
:100A18007302C330743B031C122D132D142D282D83
:100A28000130F3070030F43DF53DF63D7608031D2F
:100A3800282D7508031D282D50307302C330743BD0
:100A4800031C272D282D142D0800400125082604F5
:100A580003192F2D302D432D0130A5020030A63B60
:100A6800230886002408870001084F018C00013004
:100A78004001A3070030A43D0330F000522D2A089E
:100A88000319472D482D4E2DAA014F01911401300D
:100A9800F000522D863185268531F0007008080057
:100AA8000030F6000030F5000030F4000030F300AC
:100AB800722D0130F3070030F43DF53DF63D760820
:100AC800031D702DA13073028630743B0130753BD5
:100AD800031C6F2D702D722D00307B2D8631C92699
:100AE8008531003A031D792D7A2D5D2D01300800DE
:100AF800F3018631C9268531003A031D842D852DE1
:100B0800A12D01304001A0004F08A2004E08A1000D
:100B18000130AA005008A300A4015208A6005108F9
:100B2800A5005308A7005508A9005408A800AB0160
:100B380086319F2685310130F30073080800F801DB
:100B48008631C9268531003A031DAB2DAC2DC42D45
:100B580001304001A0007408A2007308A100AA0196
:100B68007508A300A4017708A6007608A500A701C8
:100B7800A801A901AB0186319F2685310130F80013
:100B8800780808004001CE01CF01003084319C2450
:100B980085314001D1005108031DD32DD42DD62D08
:100BA8000030E52DCE01CF01033084319C248531FE
:100BB8004001D1005108031DE22DE32DE42DD42D71
:100BC8000130080006304001AC000330AB004101A1
:100BD800911140012C08F100F201F135F20D2B3092
:100BE800710784000630723D80388500013F8A0015
:100BF800003F0A0085314001AC0008005730400131
:100C0800D6000E30833179238631003A031D0D2E2C
:100C18000E2E102E0030162E40015708B500580829
:100C2800B600013008004E34063400340034A334D2
:100C38000534003400347C34053400340034A534E1
:100C48000634C93406340034003400340034C53462
:100C580006348C340634B734063429340534CE349B
:100C68000434B1340634AB340634853406347E3467
:100C780006344001A0010030A200FF30A100A3010A
:100C8800A401A701AC014101111191114F01901369
:100C98001013080080304F018F0008309000910138
:100CA80092014F308D0041011B159B154F01901685
:100CB80008008631752686318331F22386318631E4
:100CC8004E26863186316A268631080041010C108D
:100CD8000B140030F3000030F40086319926863179
:100CE8000800603045018D008F01910105309300A7
:100CF800920108004F01901290164001A0010030A7
:100D080008004F01111586313D2686310030080054
:100D180003144001210D4F018C00043008006400C9
:100D280080010131890B942E003474084001EF00D2
:100D38007308EE0008004F01111402304001AC00A6
:100D4800080040012B08F300AB0173080800863146
:100D58007E268631F00070080800863185268631A7
:100D6800F00070080800400121354F018C00033065
:100D7800080084312D24863108008531E625863126
:100D880008004001A00108300800400120080800C0
:020000040001F9
:0A000E008F3FFF3F9F3FFF3FFF3F82
:00000001FF
