:0400000080312828FB
:100008007E14803100308600003087000B1F0D28D9
:100018000E28262841019B1D122813281B28911DF4
:10002800162817281B288231D222803126281B1D2A
:100038001E281F282628111D222823282628823119
:10004800CE2280317E10090080312A28F801F9017A
:10005800203084000030850015308231A4228031A0
:100068007E1040018031CD2805304001C100B1012A
:10007800B201B001B301B4011C30B5000030B600C4
:100088004130B7000130B8000030B9003330BA0051
:100098000230BB000030BC008131E3218031003ADE
:1000A800031D5728582860288231B6228031400124
:1000B800B0000130B100CC2800304001C000003051
:1000C800BF000030BE000030BD0084280130400170
:1000D800BD070030BE3DBF3DC03D4008031D7E2822
:1000E800A1303D0286303E3B01303F3B031C7D285A
:1000F8007E28842803304001B0000130B100CC28AC
:100108008231DA228031003A031D8B288C286A2834
:100118008231B62280314001B00030080319952899
:10012800962897285D283308C3003408C200431E68
:100138009E289F28BC28FF30C2050F30C305003019
:10014800F4001030F50042087402F6004308753BCD
:10015800F7000430F736F60C890BAE28F609F709D4
:10016800F60A0319F70A7608AE007708AF00C9281F
:10017800FF30C2050F30C305420E0F39AE00430EE3
:10018800F039AE04430E0F39AF000130B2005D28DC
:10019800080082316E22803182315F228031400135
:1001A800B301B401AE01AF01B201B101B0010B1747
:1001B8008B1780313820803100304001C700003073
:1001C800C6000030C5000030C4004708031DF728EA
:1001D8004608031DF72850304402C330453B031C32
:1001E800F628F728F828DD2801304001C407003038
:1001F800C53DC63DC73D4708031D0D294608031DDB
:100208000D2950304402C330453B031C0C290D29ED
:10021800F828DD28803128284001980150309900BD
:100228009A0137309200F0309300FF309400373055
:100238007D018C00A0309600FF30A0008D01970151
:10024800A1018E019801A20137308F00F03099008A
:10025800FF30A3003F309000A0309A00FF30A40088
:100268000E307C01C7001B307B019A000C307C01EA
:10027800C8001C307B0198007D0191019201930117
:100288009B019C019D01A501A601A7010800410150
:1002980011114F010F1E51295229562982314D2221
:1002A800813171298F1A59295A296429111F5D2909
:1002B8005E29642905304001AD000130AC00712988
:1002C8008F1E672968297129111F6B296C297129CB
:1002D80005304001AD000230AC0040012D08F100AE
:1002E800F201F135F20D3B30710784000230723DA6
:1002F80080388500013F8A00003F0A0081314001B3
:10030800AD0008000430F0004F010F1C8C298D2926
:10031800B529400129082A04031993299429A429F5
:1003280027088600280887004F010C088100013043
:100338004001A7070030A83D0130A9020030AA3BC0
:1003480029082A040319A929AA29AE294F019112BB
:100358001116B6294F019110911611160730F000A9
:10036800B6299115700808004001250826040319CC
:10037800BE29BF29D2290130A5020030A63B230897
:1003880086002408870001084F018C0001304001D5
:10039800A3070030A43D0330F000E1292B0803191E
:1003A800D629D729DD29AB014F0191140130F0007E
:1003B800E129823196228131F00070080800F301AA
:1003C8008231DA228131003A031DEB29EC29092A0E
:1003D80001304001A0003608A2003508A100013014
:1003E800AB003708A300A4013908A6003808A50007
:1003F8003A08A700A8013C08AA003B08A900AC01DC
:100408008231B02281310130F300730808000630D0
:100418004001AD000330AC004101911140012D08AD
:10042800F100F201F135F20D3B3071078400023022
:10043800723D80388500013F8A00003F0A00823102
:100448004001AD0008005F34023400340034003449
:10045800003400340034E334013400340034B6345A
:100468000234DA3402340034003400340034D63430
:1004780002349D340234C8340234B834013486342A
:100488000134C2340234BC340234963402348F341A
:1004980002344001A0010030A200FF30A100A301F6
:1004A800A401A701A801AD014101111191114F014A
:1004B80090131013080080304F018F00083090000F
:1004C800910192014F308D0041011B159B154F0181
:1004D80090160800823186228231813110218231C2
:1004E80082315F22823182317B22823108004101D0
:1004F8000C100B140030F3000030F4008231AA22F3
:1005080082310800603045018D008F01910105306E
:100518009300920108004F01901290164001A0012B
:10052800003008004F01111582314D228231003010
:10053800080003144001210D4F018C00043008000D
:10054800640080010131890BA52A00347408400138
:10055800C9007308C80008004F0111140230400197
:10056800AD00080040012C08F300AC017308080036
:1005780082318F228231F000700808008231962281
:100588008231F00070080800400121354F018C00CD
:100598000330080081314B218231080082310B225F
:1005A800823108004001A0010830080040012008FD
:0205B800080039
:020000040001F9
:0A000E008F3FFF3F9F3FFF3FFF3F82
:00000001FF
