:0400000080312828FB
:100008007E14803100308600003087000B1F0D28D9
:100018000E28262841019B1D122813281B28911DF4
:10002800162817281B2884313224803126281B1DC6
:100038001E281F282628111D222823282628843117
:100048002E2480317E10090080312A28F701F8011A
:100058004830840000308500193084310424803110
:100068007E1040018131F52905304001C100DD01D4
:10007800DE01DC01DF01E0011C30A0000030A1003E
:100088004130A2000130A3000030A4005F30A50079
:100098000230A6000030A700833143238031003AA4
:1000A800031D5728582860288431162480314001C0
:1000B800DC000130DD000C2900304001C0000030B8
:1000C800BF000030BE000030BD0084280130400170
:1000D800BD070030BE3DBF3DC03D4008031D7E2822
:1000E800A1303D0286303E3B01303F3B031C7D285A
:1000F8007E28842803304001DC000130DD000C2913
:1001080084313A248031003A031D8B288C286A28D0
:100118008431162480314001DC005C0803199528DD
:10012800962897285D286008B600B7015F08B800D0
:10013800B9013808B900B80136083804BB003708D7
:100148003904BC00FF303B05C2001F303C05C3002A
:10015800431EAF28B028C828FF30C2050F30C3059A
:100168000030B6001030B70042083602B800430825
:10017800373BB900B809B909B80A0319B90A3808E8
:10018800D8003908D900CC284308D9004208D8003B
:100198001030F3000030F4005908F6005808F50054
:1001A80081319921803174084001DB007308DA003D
:1001B8000030AB000030AA000030A9001030A800C1
:1001C8005808A0005908A100890D893B8909A20097
:1001D800A3000030A7000030A6000030A50064305E
:1001E800A4008231B222803140012308AF002208E6
:1001F800AE002108AD002008AC0081310D2180310E
:1002080040012908D7002808D6000130DE005D2803
:1002180008004001B101AB1F122913292029A809A0
:10022800A909AA09AB09A80A0319A90A0319AA0A5C
:100238000319AB0A0130B100AF1F23292429312942
:10024800AC09AD09AE09AF09AC0A0319AD0A031927
:10025800AE0A0319AF0A0130B1060030B50000300C
:10026800B4000030B3000030B2002B082A0429047F
:10027800280403194029412980290130B0004D295B
:100288000130A835A90DAA0DAB0D890B4529013000
:10029800B007AB1F5029512944290130B235B30D9D
:1002A800B40DB50D890B52292B082F02031D6629A1
:1002B8002A082E02031D662929082D02031D662916
:1002C80028082C02031C69296A2973292808AC020A
:1002D8002908AD3B2A08AE3B2B08AF3B321401304E
:1002E800AB36AA0CA90CA80C890B74290130B002F2
:1002F800031D7F298029512931080319842985295B
:100308009029B209B309B409B509B20A0319B30AA5
:100318000319B40A0319B50A3508AB003408AA0052
:100328003308A9003208A80008004001A101F41F01
:100338009E299F29A629F309F409F30A0319F40A47
:100348000130A100F61FA929AA29B129F509F60942
:10035800F50A0319F60A0130A106A201A3017308E0
:1003680074040319B829B929E6290130A000C32962
:100378000130F335F40D890BBD290130A007F41FB6
:10038800C629C729BC290130A235A30D890BC82964
:1003980074087602031DD22973087502031CD52937
:1003A800D629DB297308F5027408F63B22140130BC
:1003B800F436F30C890BDC290130A002031DE52972
:1003C800E629C72921080319EA29EB29F029A209F6
:1003D800A309A20A0319A30A2308F4002208F300B8
:1003E80008008331CE2381318331BF23813140011D
:1003F800DF01E001DA01DB01D801D901D601D7011B
:10040800DE01DD01DC010B178B17803138208131CB
:1004180000304001C7000030C6000030C500003081
:10042800C4004708031D232A4608031D232A503009
:100438004402C330453B031C222A232A242A092AC2
:1004480001304001C4070030C53DC63DC73D4708DF
:10045800031D392A4608031D392A50304402C33087
:10046800453B031C382A392A242A092A803128289E
:1004780040019801503099009A0137309200F030CD
:100488009300FF30940037307D018C00A030960037
:10049800FF30A0008D019701A1018E019801A201F2
:1004A80037308F00F0309900FF30A3003F309000C4
:1004B800A0309A00FF30A4000E307C01C7001B302A
:1004C8007B019A000C307C01C8001C307B0198002D
:1004D8007D019101920193019B019C019D01A50160
:1004E800A601A7010800410111114F010F1E7D2A25
:1004F8007E2A822A8331AD2382319D2A8F1A852A4A
:10050800862A902A111F892A8A2A902A05304001B2
:10051800D5000130D4009D2A8F1E932A942A9D2A43
:10052800111F972A982A9D2A05304001D5000230CC
:10053800D40040015508F100F201F135F20D9B306D
:10054800710784000330723D80388500013F8A00BE
:10055800003F0A0082314001D50008000030F60053
:100568000030F5000030F4000030F3004001201C9A
:10057800BE2ABF2AC72A2408F3072508F43D2608FF
:10058800F53D2708F63D0130A435A50DA60DA70DAC
:10059800890BC82A0130A336A20CA10CA00C890B28
:1005A800CF2A2308220421042004031DDC2ADD2A83
:1005B800BA2A7608A3007508A2007408A100730877
:1005C800A00008000430F0004F010F1CEC2AED2AAF
:1005D800152B4001510852040319F32AF42A042B5D
:1005E8004F088600500887004F010C088100013031
:1005F8004001CF070030D03D0130D1020030D23B5E
:10060800510852040319092B0A2B0E2B4F01911282
:100618001116162B4F019110911611160730F00084
:10062800162B91157008080040014D084E04031957
:100638001E2B1F2B322B0130CD020030CE3B4B0836
:1006480086004C08870001084F018C0001304001EA
:10065800CB070030CC3D0330F000412B5308031981
:10066800362B372B3D2BD3014F0191140130F0006D
:10067800412B8331F6238331F00070080800F30121
:1006880084313A248331003A031D4B2B4C2B692BC0
:1006980001304001C8002108CA002008C900013003
:1006A800D3002208CB00CC012408CE002308CD00BB
:1006B8002508CF00D0012708D2002608D100D40190
:1006C8008431102483310130F300730808000630A8
:1006D8004001D5000330D400410191114001550873
:1006E800F100F201F135F20D9B30710784000330FF
:1006F800723D80388500013F8A00003F0A0083313F
:100708004001D5000800BF340334003400340034FD
:1007180000340034003443340334003400341634D5
:1007280004343A34043400340034003400343634A9
:100738000434FD3403342834043418340334E634E0
:100748000234223404341C340434F6340334EF34D1
:1007580003344001C8010030CA00FF30C900CB0192
:10076800CC01CF01D001D5014101111191114F01E7
:1007780090131013080080304F018F00083090004C
:10078800910192014F308D0041011B159B154F01BE
:10079800901608008331E623833182313C2283316D
:1007A8008331BF2383318331DB2383310800410147
:1007B8000C100B140030F3000030F40084310A24CC
:1007C80083310800603045018D008F0191010530AB
:1007D8009300920108004F01901290164001C80141
:1007E800003008004F0111158331AD2383310030EB
:1007F800080003144001490D4F018C000430080023
:10080800640080010131890B052C00347408400113
:10081800E2007308E10008004F01111402304001A2
:10082800D500080040015408F300D40173080800FB
:100838008331EF238431F000700808008331F623F8
:100848008431F00070080800400149354F018C00E0
:1008580003300800823177228431080083316B230A
:10086800843108004001C8010830080040014808E8
:02087800080076
:020000040001F9
:0A000E008F3FFF3F9F3FFF3FFF3F82
:00000001FF
