:0400000080312828FB
:100008007E14803100308600003087000B1F0D28D9
:100018000E28262841019B1D122813281B28911DF4
:10002800162817281B2884319524803126281B1D63
:100038001E281F282628111D222823282628843117
:10004800912480317E10090080312A28F701F801B7
:1000580041308400003085001930843167248031B4
:100068007E1040018331B12B05304001BC00D60120
:10007800D701D501D801D9011C30A0000030A1005A
:100088003C30A2000130A3000030A4005830A50085
:100098000230A6000030A700833189238031003A5E
:1000A800031D57285828602884317924803140015D
:1000B800D5000130D6004529833161238031003ACB
:1000C800031D672868286E2803304001D5000130D9
:1000D800D60045298431792480314001D50055085E
:1000E80003197728782879285D285808BE00590808
:1000F800BD003E1E802881289928FF30BD050F309D
:10010800BE050030B6001030B7003D083602B80012
:100118003E08373BB900B809B909B80A0319B90A42
:100128003808BF003908C000A128FF30BD050F30CE
:10013800BE053E08C0003D08BF004008D2003F0889
:10014800D100C01BA828A928BA281030F300003015
:10015800F4004008F6003F08F5008131D2218031D3
:1001680074084001D4007308D300D128F030F3009C
:10017800FF30F4004008F6003F08F5008131D22135
:10018800803173094001B6007409B700B60A031933
:10019800B70A3608D3003708D400C01BD428D5289E
:1001A80003290030AB000030AA000030A900043059
:1001B800A8003F08A0004008A100890D893B8909D3
:1001C800A200A3000030A7000030A6000030A50060
:1001D8001930A4008231A422803140012308AF00E5
:1001E8002208AE002108AD002008AC00813146216C
:1001F800803140012908BB002808BA003E29003098
:10020800AB000030AA000030A9000430A8003F0964
:10021800B6004009B700B60A0319B70A3608A000A5
:100228003708A100890D893B8909A200A300003085
:10023800A7000030A6000030A5001930A4008231C4
:10024800A422803140012308AF002208AE00210813
:10025800AD002008AC0081314621803140012809D9
:10026800B8002909B900B80A0319B90A3808BA0048
:100278003908BB003B08D0003A08CF000130D7004E
:100288005D2808004001B101AB1F4B294C295929B1
:10029800A809A909AA09AB09A80A0319A90A0319EF
:1002A800AA0A0319AB0A0130B100AF1F5C295D2906
:1002B8006A29AC09AD09AE09AF09AC0A0319AD0A40
:1002C8000319AE0A0319AF0A0130B1060030B500B0
:1002D8000030B4000030B3000030B2002B082A040C
:1002E80029042804031979297A29B9290130B00089
:1002F80086290130A835A90DAA0DAB0D890B7E29D9
:100308000130B007AB1F89298A297D290130B23510
:10031800B30DB40DB50D890B8B292B082F02031DC6
:100328009F292A082E02031D9F2929082D02031D33
:100338009F2928082C02031CA229A329AC292808D4
:10034800AC022908AD3B2A08AE3B2B08AF3B321460
:100358000130AB36AA0CA90CA80C890BAD290130C9
:10036800B002031DB829B9298A2931080319BD2902
:10037800BE29C929B209B309B409B509B20A0319D2
:10038800B30A0319B40A0319B50A3508AB003408CF
:10039800AA003308A9003208A80008004001A101FA
:1003A800F41FD729D829DF29F309F409F30A031917
:1003B800F40A0130A100F61FE229E329EA29F50928
:1003C800F609F50A0319F60A0130A106A201A301EC
:1003D800730874040319F129F2291F2A0130A000B7
:1003E800FC290130F335F40D890BF6290130A007FB
:1003F800F41FFF29002AF5290130A235A30D890B26
:10040800012A74087602031D0B2A73087502031C5F
:100418000E2A0F2A142A7308F5027408F63B2214D0
:100428000130F436F30C890B152A0130A002031DA4
:100438001E2A1F2A002A21080319232A242A292AC6
:10044800A209A309A20A0319A30A2308F40022088F
:10045800F300080040019801503099009A013730A4
:100468009200F0309300FF30940037307D018C000B
:10047800A0309600FF30A0008D019701A1018E01E8
:100488009801A20137308F00F0309900FF30A300A7
:100498003F309000A0309A00FF30A4000E307C015D
:1004A800C7001B307B019A000C307C01C8001C304F
:1004B8007B0198007D019101920193019B019C01B0
:1004C8009D01A501A601A7010800410111114F01D5
:1004D8000F1E6F2A702A742A8431102482318F2AC1
:1004E8008F1A772A782A822A111F7B2A7C2A822A45
:1004F80005304001CE000130CD008F2A8F1E852A9D
:10050800862A8F2A111F892A8A2A8F2A05304001B4
:10051800CE000230CD0040014E08F100F201F13565
:10052800F20DFE30710784000330723D803885007B
:10053800013F8A00003F0A0082314001CE000800D6
:100548000030F6000030F5000030F4000030F30011
:100558004001201CB02AB12AB92A2408F30725082B
:10056800F43D2608F53D2708F63D0130A435A50DD4
:10057800A60DA70D890BBA2A0130A336A20CA10C2F
:10058800A00C890BC12A2308220421042004031D7E
:10059800CE2ACF2AAC2A7608A3007508A2007408D0
:1005A800A1007308A00008000430F0004F010F1CE0
:1005B800DE2ADF2A072B40014A084B040319E52AE3
:1005C800E62AF62A48088600490887004F010C08E1
:1005D800810001304001C8070030C93D0130CA021E
:1005E8000030CB3B4A084B040319FB2AFC2A002B9A
:1005F8004F0191121116082B4F01911091161116E7
:100608000730F000082B9115700808000030F6003C
:100618000030F5000030F4000030F3007608031DC8
:10062800202B7508031D202B50307302C330743BF8
:10063800031C1F2B202B212B352B0130F3070030F7
:10064800F43DF53DF63D7608031D352B7508031D71
:10065800352B50307302C330743B031C342B352BBD
:10066800212B080040014608470403193C2B3D2B69
:10067800502B0130C6020030C73B440886004508AD
:10068800870001084F018C0001304001C407003089
:10069800C53D0330F0005F2B4C080319542B552B34
:1006A8005B2BCC014F0191140130F0005F2B84319A
:1006B80059248331F000700808000030F60000303B
:1006C800F5000030F4000030F3007F2B0130F30711
:1006D8000030F43DF53DF63D7608031D7D2BA13035
:1006E80073028630743B0130753B031C7C2B7D2BD9
:1006F8007F2B0030882B84319D248331003A031DE1
:10070800862B872B6A2B01300800F30184319D2446
:100718008331003A031D912B922BAF2B01304001FE
:10072800C1002108C3002008C2000130CC00220803
:10073800C400C5012408C7002308C6002508C8004E
:10074800C9012708CB002608CA00CD0184317324CB
:1007580083310130F3007308080084313124833178
:100768008431222483314001D801D901D301D40135
:10077800D101D201CF01D001D701D601D5010B1784
:100788008B1780313820833183310A238331C52B7D
:100798008031282806304001CE000330CD004101C9
:1007A800911140014E08F100F201F135F20DFE30D1
:1007B800710784000330723D80388500013F8A004C
:1007C800003F0A0083314001CE000800223404347F
:1007D80000340034003400340034003489340334E5
:1007E80000340034793404349D3404340034003443
:1007F8000034003499340434603404348B340434C1
:1008080036340334D8340234853404347F34043421
:1008180059340434523404344001C1010030C30057
:10082800FF30C200C401C501C801C901CE014101A0
:10083800111191114F0190131013080080304F01CE
:100848008F0008309000910192014F308D004101D6
:100858001B159B154F0190160800843149248431DB
:1008680082312E22843184312224843184313E2401
:100878008431080041010C100B140030F3000030E3
:10088800F40084316D2484310800603045018D0006
:100898008F01910105309300920108004F019012D9
:1008A80090164001C101003008004F011115843134
:1008B800102484310030080003144001420D4F0118
:1008C8008C0004300800640080010131890B682C19
:1008D800003474084001DB007308DA0008004F0197
:1008E800111402304001CE00080040014D08F30009
:1008F800CD0173080800843152248431F000700857
:100908000800843159248431F0007008080040013F
:1009180042354F018C00033008008231692284314E
:1009280008008331CE23843108004001C10108301A
:0809380008004001410808001D
:020000040001F9
:0A000E008F3FFF3F9F3FFF3FFF3F82
:00000001FF
